{
    "contractName": "TasksContract",
    "abi": [
        {
            "inputs": [],
            "stateMutability": "nonpayable",
            "type": "constructor"
        },
        {
            "inputs": [
                {
                    "internalType": "string",
                    "name": "_tittle",
                    "type": "string"
                },
                {
                    "internalType": "string",
                    "name": "_description",
                    "type": "string"
                }
            ],
            "name": "createTask",
            "outputs": [],
            "stateMutability": "nonpayable",
            "type": "function"
        },
        {
            "inputs": [
                {
                    "internalType": "uint256",
                    "name": "",
                    "type": "uint256"
                }
            ],
            "name": "tasks",
            "outputs": [
                {
                    "internalType": "uint256",
                    "name": "id",
                    "type": "uint256"
                },
                {
                    "internalType": "string",
                    "name": "title",
                    "type": "string"
                },
                {
                    "internalType": "string",
                    "name": "description",
                    "type": "string"
                },
                {
                    "internalType": "bool",
                    "name": "done",
                    "type": "bool"
                },
                {
                    "internalType": "uint256",
                    "name": "createdAt",
                    "type": "uint256"
                }
            ],
            "stateMutability": "view",
            "type": "function"
        },
        {
            "inputs": [],
            "name": "tasksCounter",
            "outputs": [
                {
                    "internalType": "uint256",
                    "name": "",
                    "type": "uint256"
                }
            ],
            "stateMutability": "view",
            "type": "function"
        },
        {
            "inputs": [
                {
                    "internalType": "uint256",
                    "name": "_id",
                    "type": "uint256"
                }
            ],
            "name": "toggleDone",
            "outputs": [],
            "stateMutability": "nonpayable",
            "type": "function"
        }
    ],
    "bytecode": "60806040526000805534801561001457600080fd5b5061006a6040518060400160405280600f81526020016e6d69207072696d657220746172656160881b8152506040518060400160405280600681526020016574616b61746160d01b81525061006f60201b60201c565b61021b565b60008054908061007e836101b7565b90915550506040805160a081018252600080548083526020808401878152848601879052606085018490524260808601529183526001808252949092208351815590518051939491936100d99392850192919091019061011e565b50604082015180516100f591600284019160209091019061011e565b50606082015160038201805460ff19169115159190911790556080909101516004909101555050565b82805461012a906101e0565b90600052602060002090601f01602090048101928261014c5760008555610192565b82601f1061016557805160ff1916838001178555610192565b82800160010185558215610192579182015b82811115610192578251825591602001919060010190610177565b5061019e9291506101a2565b5090565b5b8082111561019e57600081556001016101a3565b60006000198214156101d957634e487b7160e01b600052601160045260246000fd5b5060010190565b600181811c908216806101f457607f821691505b6020821081141561021557634e487b7160e01b600052602260045260246000fd5b50919050565b6107208061022a6000396000f3fe608060405234801561001057600080fd5b506004361061004c5760003560e01c8063292a45851461005157806385c3e723146100665780638d97767214610082578063d81ef739146100a6575b600080fd5b61006461005f36600461057c565b6100b9565b005b61006f60005481565b6040519081526020015b60405180910390f35b6100956100903660046105e0565b610168565b604051610079959493929190610646565b6100646100b43660046105e0565b6102aa565b6000805490806100c883610686565b90915550506040805160a0810182526000805480835260208084018781528486018790526060850184905242608086015291835260018082529490922083518155905180519394919361012393928501929190910190610440565b506040820151805161013f916002840191602090910190610440565b50606082015160038201805460ff19169115159190911790556080909101516004909101555050565b600160208190526000918252604090912080549181018054610189906106af565b80601f01602080910402602001604051908101604052809291908181526020018280546101b5906106af565b80156102025780601f106101d757610100808354040283529160200191610202565b820191906000526020600020905b8154815290600101906020018083116101e557829003601f168201915b505050505090806002018054610217906106af565b80601f0160208091040260200160405190810160405280929190818152602001828054610243906106af565b80156102905780601f1061026557610100808354040283529160200191610290565b820191906000526020600020905b81548152906001019060200180831161027357829003601f168201915b505050506003830154600490930154919260ff1691905085565b6000818152600160208181526040808420815160a081019092528054825292830180549193928401916102dc906106af565b80601f0160208091040260200160405190810160405280929190818152602001828054610308906106af565b80156103555780601f1061032a57610100808354040283529160200191610355565b820191906000526020600020905b81548152906001019060200180831161033857829003601f168201915b5050505050815260200160028201805461036e906106af565b80601f016020809104026020016040519081016040528092919081815260200182805461039a906106af565b80156103e75780601f106103bc576101008083540402835291602001916103e7565b820191906000526020600020905b8154815290600101906020018083116103ca57829003601f168201915b5050509183525050600382015460ff161515602080830191909152600490920154604091820152606083018051159052600085815260018084529190208351815583830151805194955085949193610123938501929101905b82805461044c906106af565b90600052602060002090601f01602090048101928261046e57600085556104b4565b82601f1061048757805160ff19168380011785556104b4565b828001600101855582156104b4579182015b828111156104b4578251825591602001919060010190610499565b506104c09291506104c4565b5090565b5b808211156104c057600081556001016104c5565b634e487b7160e01b600052604160045260246000fd5b600082601f83011261050057600080fd5b813567ffffffffffffffff8082111561051b5761051b6104d9565b604051601f8301601f19908116603f01168101908282118183101715610543576105436104d9565b8160405283815286602085880101111561055c57600080fd5b836020870160208301376000602085830101528094505050505092915050565b6000806040838503121561058f57600080fd5b823567ffffffffffffffff808211156105a757600080fd5b6105b3868387016104ef565b935060208501359150808211156105c957600080fd5b506105d6858286016104ef565b9150509250929050565b6000602082840312156105f257600080fd5b5035919050565b6000815180845260005b8181101561061f57602081850181015186830182015201610603565b81811115610631576000602083870101525b50601f01601f19169290920160200192915050565b85815260a06020820152600061065f60a08301876105f9565b828103604084015261067181876105f9565b94151560608401525050608001529392505050565b60006000198214156106a857634e487b7160e01b600052601160045260246000fd5b5060010190565b600181811c908216806106c357607f821691505b602082108114156106e457634e487b7160e01b600052602260045260246000fd5b5091905056fea2646970667358221220a097de83f8f08d268b31465f5711d0b32f1f2b13a4c3497425dd42b92a9d25db64736f6c63430008090033",
    "sourcePath": "/home/mateo/randomContract/contracts/TasksContract.sol",
    "compiler": {
        "name": "solc",
        "version": "0.8.9+commit.e5eed63a"
    },
    "functionHashes": {
        "createTask(string,string)": "292a4585",
        "tasks(uint256)": "8d977672",
        "tasksCounter()": "85c3e723",
        "toggleDone(uint256)": "d81ef739"
    },
    "gasEstimates": {
        "creation": {
            "codeDepositCost": "364800",
            "executionCost": "infinite",
            "totalCost": "infinite"
        },
        "external": {
            "createTask(string,string)": "infinite",
            "tasks(uint256)": "infinite",
            "tasksCounter()": "2284",
            "toggleDone(uint256)": "infinite"
        }
    }
}